:020000040800F2
:100000003005002049010008F32C000829270008CA
:10001000F12C0008A90F00081F30000800000000A4
:10002000000000000000000000000000412E000859
:10003000AB0F000800000000F52C0008432E00085C
:100040006301000863010008630100086301000800
:1000500063010008630100086301000863010008F0
:1000600063010008630100086301000863010008E0
:1000700063010008630100086301000863010008D0
:1000800063010008630100086301000863010008C0
:1000900063010008630100086301000863010008B0
:1000A00063010008630100086301000863010008A0
:1000B0006301000863010008630100086301000890
:1000C0006301000863010008630100086301000880
:1000D0006301000863010008630100086301000870
:1000E0006301000863010008630100086301000860
:1000F0006301000863010008630100086301000850
:10010000630100086301000863010008630100083F
:10011000630100086301000863010008630100082F
:10012000630100086301000863010008630100081F
:10013000DFF810D000F06EF800480047F1340008F6
:10014000AFF300803005002006488047064800478E
:10015000FEE7FEE7FEE7FEE7FEE7FEE7FEE7FEE777
:10016000FEE7FEE7A52E000831010008202A04DB87
:10017000203A21FA02F00021704721FA02F3D04020
:10018000C2F120029140084319467047D2B201E003
:1001900000F8012B491EFBD270470022F6E710B58C
:1001A00013460A4604461946FFF7F0FF204610BDE5
:1001B0002DE9F05F0546002092469B46884606469C
:1001C000814640241BE02846414647462246FFF729
:1001D000CDFF53465A46C01A914110D311461846D6
:1001E000224600F029F82D1A67EB01084F462246F7
:1001F0000120002100F020F817EB00094E41201EDD
:10020000A4F10104DFDC484631462A464346BDE8F6
:10021000F09F0000064C074D06E0E06840F0010347
:1002200094E8070098471034AC42F6D3FFF784FFF8
:10023000E035000800360008202A04DB203A00FAE6
:1002400002F1002070479140C2F1200320FA03F32D
:10025000194390407047000070B50F4C207800287B
:1002600018D00E4D6078082811D2DFE800F0101089
:1002700010100407100B00F03BFA01E000F0E4FA64
:100280006070EFE7294606A002F0CAFEEAE700F038
:100290001FF8E7E770BD00001000002000400008D4
:1002A0004F544120555044415441204641494C202F
:1002B0002C504C45415345204D414E55414C205505
:1002C000504441544120544F203078253038780034
:1002D00070B519A002F0A4FE1B4C6078062805D169
:1002E000002000F0EFF8002000F0C8F8642000F0D3
:1002F000E9FE164A11685068A1F100550523B5F1D1
:10030000011F02D3637012A004E0904206D201469E
:10031000637015A0BDE8704002F082BE72B6002383
:100320004FF0E02423616361A361154B1A6081F3F0
:100330000888BDE8704000474F5441206A616D70E5
:10034000206170700D0A00001000002000400008BD
:10035000496E76616C6964204D53503A203078259F
:100360003038580D0A000000496E76616C696420CF
:1003700052657365743A203078253038580D0A007C
:1003800008ED00E070B508221A49002000F07EF95F
:10039000050005D0812218A11EA002F041FE27E031
:1003A000144C0026E28850BA70B100200146635C0C
:1003B000491C5840C9B20629F9D351BA814217D015
:1003C0001DA002F02DFE07E086220BA124A002F062
:1003D00027FE0020215C39B12660666008220549AD
:1003E000002000F093F803E0401CC0B20828F1D3CD
:1003F000284670BD100000202E2E5C4170705C6D90
:1004000032346330325C4170705F4D32346330326D
:100410002E630000286572726F722D3E295B257372
:100420003A25645D4D323443303220496E69742080
:100430006661696C0D0A0000656570726F6D2063FE
:100440006865636B206661696C2C7265777269748C
:100450006520696E69742076616C75650D0A00000F
:100460005B25733A25645D2C656570726F6D20663F
:100470006972737420757365640D0A00104930B495
:10048000CA888B7852BA5340CA784D795A400B7952
:10049000C0F3072453405D40020E8A70C0F3074347
:1004A000CB700C716A40C0B2534048715C406040F0
:1004B000020A8A71C871082230BC002000F026B8F8
:1004C00010000020074AD1884BBA117810705940AB
:1004D0004140080A9071D17108220249002000F0C1
:1004E00015B8000010000020074AD1884BBA517897
:1004F000507059404140080A9071D1710822024958
:10050000002000F003B80000100000202DE9FC4797
:10051000894600F00F011646C1F11004B44208D913
:10052000134602B04A46BDE8F0470146A02002F05B
:100530001BBB0519014623464A46A02002F014FBC6
:1005400080460A2000F0BEFDB8F1000002D003464C
:10055000322213E0301B86B200271CE009EB0402B4
:10056000E9B21023A02002F0FFFA80460A2000F032
:10057000A9FDB8F1000006D003463E2218A11FA035
:1005800002F04EFD29E010341035103E7F1CA4B25D
:10059000ADB2B6B2BFB2B7EB161FDFD3002E1CD080
:1005A00009EB04021446E9B23346A02002F0DCFA5B
:1005B00080460A2000F086FDB8F1000F0DD02246DB
:1005C0003346294616A002F02BFD43464D2204A1D6
:1005D0001EA0CDE9004502F023FD4046BDE8FC87A2
:1005E0002E2E5C4170705C6D32346330325C417031
:1005F000705F4D32346330322E63000028657272B2
:100600006F722D3E295B25733A25645D206969630D
:10061000207772697465206661696C3A2564000010
:10062000736176655F616464726573733A25642CE7
:10063000736176655F6461746125732C736176659F
:100640005F6C656E746825640D0A0000286572721F
:100650006F722D3E295B25733A25645D20696963BD
:10066000207772697465206661696C3A25642C6430
:100670006174613A25732C736176655F616464729D
:100680006573733A25640D0A0000000010B5134627
:100690000A460146A12002F075FA040005D003467F
:1006A000712203A109A002F0BBFC204610BD00008E
:1006B0002E2E5C4170705C6D32346330325C417060
:1006C000705F4D32346330322E63000028657272E1
:1006D0006F722D3E295B25733A25645D2C69696331
:1006E0002072656164206661696C3A25640D0A00B8
:1006F0002DE9F041284986B048880A7940BA0004BB
:10070000497940EA0220084315D0C0F3CF254005BF
:1007100001D06D1CADB200F085FD00280FD0522233
:100720001EA124A002F07CFC0020FFF7DDFE0020CB
:1007300006B0BDE8F081432218A128A0F2E700240A
:100740000126304FDFF8C0801BE000BFD7E9000171
:10075000FA68CDE9020108EBC420CDE9040201A941
:10076000019602A800F0C0FC48B163220BA127A0AB
:1007700002F056FC0420FFF7B7FE0420D8E7641C03
:10078000A4B2AC42E2D32AA002F04AFC0520FFF753
:10079000ABFE0520CCE70000100000202E2E5C41AF
:1007A00070705C4F54415C4170705F4F54412E63D8
:1007B00000000000286572726F722D3E295B257360
:1007C0003A25645D20666C61736820756E6C6F639A
:1007D0006B206661696C0D0A00000000286572726A
:1007E0006F722D3E295B25733A25645D2065726129
:1007F00073652073697A65206973207A65726F0D5D
:100800000A000000D0350008004000082865727218
:100810006F722D3E295B25733A25645D20666C61FD
:100820007368206572617365206661696C0D0A00EA
:100830004F54415F45726173655F636869705F66BD
:100840006C6173680D0A00002DE9F043ADF2044DB0
:10085000CBA002F0E5FBD04D4FF400764FF000073F
:10086000688840BA0104287941EA0021014311D186
:1008700000244FF4005800BF8DF8007460020DF59D
:10088000806100F091FA9DF80004FF2815D0641CE7
:100890004445F1D3B14631466846FFF77EFCBF4E72
:1008A00000F0C0FC002837D0B022BDA1C2A002F0E9
:1008B000B7FB0520FFF718FE60E104B3314680A8BE
:1008C000FFF76BFC6402A4F5007780A9384600F0BE
:1008D000E7FA012818D0002080A90A5CFF2A19D065
:1008E000401C80B2B042F8D32046010EA970010C22
:1008F000E970010A29716871FFF7C0FDCAE7072096
:100900000DF2044DBDE8F0838F22A5A1B4A002F042
:1009100087FBF4E73844E8E700276C46A8461FE069
:100920007802694600F0C2F901284ED0002560190E
:10093000615DC278002341EA02628178407809044F
:1009400041EA002002433146022000F02BFC01283E
:100950003DD02D1DADB2361D4D45E8D37F1CBFB235
:10096000B8F8021049BA0A0498F8041042EA0120C3
:100970000843C11700EBD150B7EB602FD0DBB8F8BC
:10098000027098F8045079BA090441EA0520284316
:10099000C00566D049466846FFF7FFFB78BA0004F9
:1009A00040EA05202843484515DB78BA000440EAB0
:1009B00005202843C11700EBD1506FF308006946AA
:1009C00000F074F9012804D00BE0B922D0E0C32272
:1009D000CEE0D322CCE06946002000F067F9012880
:1009E00002D00027454615E0DD22C1E004EB870078
:1009F00034F827108278C07862F31F4141EA006220
:100A000000233146022000F0CDFB01282AD07F1CB4
:100A1000FFB2361D6888297940BA000440EA0120F7
:100A20000843C11700EBD1516FF30801401AC117F9
:100A300000EB9170B7EBA00FD8DB698848BA0204CD
:100A4000287942EA00220243D31702EB937323F082
:100A50000303D21AD2B2032A06D0022A3ED0012AB8
:100A600066D07CE0E92283E04ABA120442EA00221E
:100A70000243D31702EBD3536FF30803D21A224475
:100A800012F8033C4ABA120442EA0022024349BA6D
:100A9000090441EA00210143D517C81702EBD555D7
:100AA00001EBD0506FF308056FF30800521B081AD2
:100AB0002244204412F8022C10F8010C4FF07F4120
:100AC00043EA022241EA0040024300233146022069
:100AD00000F068FB012842D1F82249E04ABA12042A
:100AE00042EA0022024349BA090441EA00210143D3
:100AF000D317C81702EBD35301EBD0506FF30803A1
:100B00006FF30800D21A081A2244204412F8022C6B
:100B100010F8010C002342EA002231460220A2F51F
:100B2000803200F03FFB012819D14FF482721FE0A0
:100B300049BA090441EA00210143C81701EBD0502A
:100B40006FF30800081A2044002310F8010C314606
:100B500060F0FF02022000F025FB012806D000F023
:100B600017FB0620FFF7C0FC0620C9E640F20F1273
:100B70000BA11BA002F054FA00F00AFB0520BFE60F
:100B80004F54415F45726173655F77726974655F49
:100B9000666C6173680D0A001000002000400008B8
:100BA0002E2E5C4170705C4F54415C4170705F4F01
:100BB00054412E6300000000286572726F722D3E52
:100BC000295B25733A25645D20666C617368207526
:100BD0006E6C6F636B206661696C0D0A000000002B
:100BE000286572726F72292D3E5B25733A25645D0C
:100BF000204F544120577269746520466C617368B8
:100C0000206661696C000000F0B5ADF5017D002043
:100C10001F4E02464FF40055809080AC2946304666
:100C200000F010FC9F2000F0B7F90321204601F0EE
:100C3000B7FF01222946304600F004FCBDF801024E
:100C40009DF8001242BA13A002F0EAF92D112946CC
:100C50006846FFF7A2FA6946002000F027F8002452
:100C600007276E4608E03CB1B4FBF7F007FB1040E5
:100C700010B90CA002F0D4F9315D0BA002F0D0F94C
:100C8000641CA4B2AC42EED30DF5017DF0BD0000B2
:100C9000001001403078253032782C3078253034FF
:100CA000780D0A000A00000025632000F8B5194EEF
:100CB0000F4604464FF4005500222946304600F006
:100CC000C1FB15A0042100680090200E8DF80100E2
:100CD000200C8DF80200200A8DF80300684600F011
:100CE00061F9040003D090220CA113A009E04FF495
:100CF0000071384600F056F8040004D0972207A18E
:100D000019A002F08DF901222946304600F09AFB25
:100D10002046F8BD00100140030000002E2E5C416B
:100D200070705C7732357133325C4170705F57326E
:100D3000357133322E630000286572726F72292D6F
:100D40003E5B25733A25645D617070207265616455
:100D50002062696E202073656E6420636D64206676
:100D600061696C0D0A000000286572726F72292D8E
:100D70003E5B25733A25645D617070207265616425
:100D80002062696E202073656E6420636D64206F3D
:100D90006B206275742072656164206661696C0DF8
:100DA0000A00000001F0FCBEF8B5194E0F460446DB
:100DB0004FF4005500222946304600F043FB15A0B1
:100DC000042100680090200E8DF80100200C8DF8A1
:100DD0000200200A8DF80300684600F0E3F80400E2
:100DE00003D0B2220CA113A008E001213846FFF77E
:100DF000D9FF040004D0B92207A11AA002F010F90B
:100E000001222946304600F01DFB2046F8BD0000B7
:100E100000100140030000002E2E5C4170705C77D2
:100E200032357133325C4170705F57323571333215
:100E30002E630000286572726F72292D3E5B257348
:100E40003A25645D61707020726561642062696E2C
:100E5000202073656E6420636D64206661696C0D8B
:100E60000A000000286572726F72292D3E5B25739F
:100E70003A25645D61707020726561642062696EFC
:100E8000202073656E6420636D64206F6B20627533
:100E9000742072656164206661696C0D0A0000004F
:100EA000F8B5194E0F4604464FF400550022294666
:100EB000304600F0C7FA15A0042100680090200E0B
:100EC0008DF80100200C8DF80200200A8DF8030037
:100ED000684600F067F8040003D0D0220CA113A0EC
:100EE00009E04FF400713846FFF75CFF040004D0BE
:100EF000D72207A119A002F093F801222946304613
:100F000000F0A0FA2046F8BD0010014003000000E8
:100F10002E2E5C4170705C7732357133325C4170DB
:100F2000705F5732357133322E630000286572725C
:100F30006F72292D3E5B25733A25645D61707020C8
:100F4000726561642062696E202073656E6420633F
:100F50006D64206661696C0D0A000000286572727C
:100F60006F72292D3E5B25733A25645D6170702098
:100F7000726561642062696E202073656E6420630F
:100F80006D64206F6B2062757420726561642066E9
:100F900061696C0D0A00000001B50121684601F08D
:100FA00007FE08BD01F004BEFEE7704772B6FEE71B
:100FB00006490020C8610648016941F00401016149
:100FC000016941F0400101617047000010010020FB
:100FD00000200240064A0021D16106490A6942F018
:100FE00002020A614861086940F0400008617047E8
:100FF0001001002000200240044B0022DA61044A64
:10100000136943F001031361018070471001002050
:101010000020024014480022C168CB06134904D5C1
:10102000CA6942F00202CA611022C3685B0705D593
:10103000CB6943F00103CB6142F00402C369DB07D3
:1010400007D0CB6943F00403CB61C16921F00101F2
:10105000C161A2F58071013901D0C2607047C169D8
:1010600021F00101C1617047002002401001002001
:1010700070B5054600F0ECF90646114C09E0681C15
:1010800007D025B100F0E4F9801BA84201D9032064
:1010900070BDE068C007F2D1E068800601D520206D
:1010A000E060E068C00605D4E069C00702D1E068EE
:1010B000400703D5FFF7AEFF012070BD002070BDD3
:1010C0000020024070B5044600F0C2F90546601CDD
:1010D00002D004480078044400F0BAF9401BA04252
:1010E000FAD370BD000000202DE9F04705462648E0
:1010F0000F460126017E01290FD00121814601768C
:101100002868DFF888804CF25034022808D0A246C4
:101110002046FFF7ADFFA8B131E00220BDE8F0871F
:101120002046FFF7A5FF08BB0120FFF741FF20463F
:10113000FFF79EFFD8F81010064621F00401C8F80A
:1011400010101CE04FF0FF303860AC6811E0204612
:10115000FFF740FF5046FFF78BFFD8F8101006004E
:1011600021F00201C8F8101001D03C6007E004F53E
:101170000064D5E9020100EBC120A042E7D80021BC
:1011800089F818103046C9E71001002000200240FD
:101190000348016941F080010161002070470000AF
:1011A000002002402DE9F05F07461C4888460024D5
:1011B000017E15461E46012909D00121814601768E
:1011C0004CF2503A5046FFF753FF18B122E002208C
:1011D000BDE8F09F012F02D0022F00D00427D34694
:1011E000DFF83CA0220128463146FEF7BFFF81B25E
:1011F00008EB4400FFF700FF5846FFF739FFDAF825
:10120000102022F00102CAF8102018B9641CE4B2C0
:10121000BC42E7D3002289F81820D9E7100100204A
:1012200000200240064900200A69120607D5054A37
:101230004A60054A4A600969090600D501207047DD
:101240000020024023016745AB89EFCD2DE9F84F1F
:10125000DFF8C8910024A9F1040B23460F2709F1F8
:10126000040AABF1040ED1E00125A54006EA05020F
:10127000AA4276D1DFF8A8C14E68A6EB0C086645F5
:101280002BD00DDC032E34D005DC36B3012E19D063
:10129000022E2FD11BE0112E16D0122E2AD119E0CA
:1012A000B8F5881F19D006DCB8F5803F15D0B8F521
:1012B000801F1FD111E0B8F5001F0ED0B8F5041F34
:1012C00018D10AE0CB6815E0CB681B1D12E0CB6893
:1012D00008330FE0CB680C330CE08B682BB1012B8B
:1012E0004FF0080303D0456104E0042302E00561E8
:1012F00000E00023FF2A01D8064601E000F10406C1
:101300004FEA840501D9A5F12005D6F8008007FA37
:1013100005FC28EA0C0803FA05F548EA0508C6F8B2
:1013200000804D68ED0070D53E4DAE6946F0010677
:10133000AE61AD6924F0030605F0010500953A4D54
:1013400006EB050CDCF80850A607360F07FA06F87E
:1013500025EA0805DFF8D480404503D14FF00008A6
:1013600025E052E0DFF8C880404502D14FF0010887
:101370001DE0DFF8C080404502D14FF0020816E0C2
:10138000DFF8B480404502D14FF003080FE0DFF8EA
:10139000AC80404502D14FF0040808E0DFF8A0809F
:1013A000404502D14FF0050801E04FF0060808FA69
:1013B00006F848EA0508CCF808804D68D9F80060BE
:1013C000ED024D4601D5164300E096432E604D6870
:1013D000DAF80060AD02554601D5164300E09643A9
:1013E0002E604D68DBF80060AD035D4601D5164305
:1013F00000E096432E604D68DEF80060ED03754610
:1014000001D5164300E096432E60641C0A68164618
:10141000E2407FF429AFBDE8F88F000008040140E6
:1014200000001110001002400000014000080140BF
:10143000000C014000100140001401400018014060
:10144000001C01400AB1016170470904FBE700007C
:1014500001488068704700000000002070B504005B
:1014600025D094F83D00002520B984F83C50204652
:1014700000F07EFA242084F83D002068016821F005
:10148000010101602068016841F4004101602068A9
:10149000016821F40041016000F0BAFB4D4A616827
:1014A000914201D84C4900E04C49884201D20120C8
:1014B00070BD4B492368B0FBF1F15E6826F03F0632
:1014C0000E435E606368934206D94FF496735943A6
:1014D0004FF47A73B1FBF3F12368491C1E6A26F0BE
:1014E0003F06314319626168914210D84900401E9D
:1014F000B0FBF1F2521CC2F30B02042A01D2042009
:1015000022E0B0FBF1F0401CC0F30B001CE0A2682D
:10151000F2B301EBC10303EB0116431EB3FBF6F379
:101520005B1C43F480431B0549D092B301EBC1021D
:1015300002EB0111401EB0FBF1F0401CC0F30B00A8
:1015400040F4804040F400402168CA694CF6FF73C3
:101550009A431043C861D4E9071001432068026828
:1015600022F0C00211430160D4E903010143206865
:10157000826848F2FF339A4311438160D4E9050140
:1015800008432168CA6822F0FF021043C86001E0E6
:101590000EE016E02068016841F001010160256459
:1015A000202084F83D00256384F83E50002070BD63
:1015B00001EB4106431EB3FBF6F35B1CB3E70120CE
:1015C000C2E701EB4101401EB0FBF1F0401CC0F34B
:1015D0000B00B7E7A086010080841E0000093D00D3
:1015E00040420F002DE9FF4F83B00025DDE910795F
:1015F0009A4693460446DDF848800095FFF728FF99
:10160000064694F83D0020287CD119230122884900
:101610002046009601F09EF90028F5D194F83C0090
:1016200001286FD0012084F83C0020680168C907B8
:1016300003D1016841F0010101602068016821F4D3
:1016400000610160222084F83D00402084F83E00C3
:1016500025646762A4F82A90608D20857548E06251
:10166000CDE9008653465A462046049901F074F8A5
:1016700000287CD1208DDFF8C091202768B1012897
:1016800014D00228206801681ED041F480610160F6
:101690002068416980690090BCE0206841698169E7
:1016A0000091016841F400710160B3E020680168B5
:1016B00021F48061016072B62068416981690091FE
:1016C000016841F400710AE041F40061016072B602
:1016D0002068416981690091016821F4806101609D
:1016E00062B697E0032865D801280CD0022843464B
:1016F0004FF000024946204600960BD001F02AF92F
:10170000A8BB0CE091E032464146204601F0C8F902
:1017100068BB72E001F01EF948BB72B633E0206886
:10172000016821F48061016072B620680069616A15
:101730000870606A401C6062208D401E2085608DAC
:10174000401E60853D4846F2A8110068B0FBF1F0EC
:10175000C0EBC00000EB80000090401E009007D05E
:1017600020684069C04340070DD50098F5E727E0A1
:1017700044F8305F6773A573206940F02000206152
:1017800062B625731CE02068016841F400710160B5
:1017900020680069616A0870606A401C6062218D7F
:1017A000491E2185618D491E618562B621680969DE
:1017B000017026E032464146204601F071F918B129
:1017C000012007B0BDE8F08F20680069616A0870E9
:1017D000606A401C6062208D401E81B22185608D50
:1017E000401E608520684269D243520712D4032903
:1017F00003D1016821F48061016020680069616A99
:101800000870606A401C6062208D401E2085608DDB
:10181000401E6085208D00287FF464AF84F83D7001
:1018200084F83E5084F83C50CBE70220C9E7000022
:10183000020010000000FFFF040001000C00002067
:101840002DE9FF4F83B09A46DDE911979346044690
:10185000DDF84080FFF7FCFD054694F83D002028A8
:101860007FD11923012240492046009501F072F8EA
:10187000002876D194F83C00012872D0012084F829
:101880003C0020680168C90703D1016841F00101EB
:1018900001602068016821F400610160212084F862
:1018A0003D00402084F83E0000262664C4F82480D1
:1018B000A4F82A90608D20852C48E062CDE900755F
:1018C00053465A462046049900F0C4FF70B930E0F0
:1018D0002A463946204601F01BF958B1206C0428ED
:1018E00004D12068016841F400710160012007B053
:1018F000BDE8F08F606A216800780861606A401C6A
:101900006062218D491E89B22185628D521E6285D9
:1019100022685369DB435B070BD469B1007810611F
:10192000606A401C6062208D401E2085608D401ED4
:101930006085208D0028CBD12A463946204600F00C
:10194000DDFF0028CAD154F83D0B016841F4007155
:101950000160202004F81E09E67766770020C6E7BC
:10196000FFE70220C3E70000020010000000FFFFB5
:1019700010B586B000210091019102910391006899
:10198000104988421BD1104CA06940F00800A061AA
:10199000A069694600F0080004904FF44060009090
:1019A00012200190032003900848FFF74FFCE069E4
:1019B00040F48000E061E06900F48000049006B02B
:1019C00010BD00000058004000100240000C014013
:1019D000024881680278114481607047000000204D
:1019E000074810B5016841F010010160032000F0C4
:1019F00067F80F2000F006F800F024F8002010BD72
:101A00000020024070B50D4D04464FF47A712878DD
:101A1000B1FBF0F00A490968B1FBF0F000F0B5FD48
:101A200048B9102C07D200222146501E00F028F899
:101A300000206C6070BD012070BD0000000000201F
:101A40000C0000200C4808B5816941F0010181615A
:101A5000816901F001010091C16941F08051C161CA
:101A6000C06900F0805000900448416821F0E061B6
:101A700041F00071416008BD0010024000000140CB
:101A8000F0B40E4B1B680C46C3F30223C3F10705E9
:101A9000042D00D90425191D072901D2002300E0D7
:101AA000DB1E012606FA05F1491E214099409E40A1
:101AB000761E16403143F0BC01F0C2BA0CED00E0D6
:101AC000064900F0070208684FF6FF03184040EA95
:101AD0000220034A10430860704700000CED00E04C
:101AE0000000FA052DE9F0470F46050061D0434E8E
:101AF000306800F00700B84209D2306820F00700D3
:101B000038433060306800F00700B84251D128688F
:101B10003B4C810712D5400703D5606840F4E06074
:101B200060602878000703D5606840F4605060600A
:101B30006068A96820F0F000084360602878C0075A
:101B400028D06868012810D02168022810D08907A1
:101B500000292EDA616821F0030101436160FFF77B
:101B600077FC804641F288390DE021688903EFE770
:101B70008901EDE7FFF76CFCA0EB0801494502D9AC
:101B80000320BDE8F0876068696800F00C00B0EBE6
:101B9000810FEFD1306800F00700B8420BD93068F0
:101BA00020F0070038433060306800F00700B8428A
:101BB00001D00120E5E72878400705D56068E9688D
:101BC00020F4E060084360602878000706D560686C
:101BD000296920F4605040EAC100606000F038F8E4
:101BE0006168084AC1F30311515CC84006490860A6
:101BF00006480068FFF706FF0020C2E70020024009
:101C000000100240B63500080C000020040000203F
:101C10000448054900684968044AC1F30221515C3F
:101C2000C84070470C00002000100240C635000874
:101C30000448054900684968044AC1F3C221515C5F
:101C4000C84070470C00002000100240C635000854
:101C50000E4A51680E4801F00C03042B11D0082BDA
:101C60000FD10C48C1F38343C903C05C0AD5516846
:101C7000084AC1F34041921E515C054A5043B0FBF3
:101C8000F1F07047044948437047000000100240DB
:101C900000127A00A635000800093D002DE9F84F32
:101CA000040070D02078C04DC00749D06868C0F3E8
:101CB0008100012807D06868C0F38100022809D19B
:101CC0006868C00306D52868800339D56068002895
:101CD000E7D035E06068B0F5803F0BD010B1B0F5CB
:101CE000A02F11D0286820F480302860286820F4C4
:101CF000802002E0286840F480302860606890B15D
:101D0000FFF7A6FB06460AE0286840F4802028601A
:101D1000F0E700BFFFF79CFB801B642873D828689E
:101D20008003F7D50CE0FFF793FB064605E000BF04
:101D3000FFF78EFB801B6428F0D828688003F7D457
:101D400020789A4E80074FF001094FF0000839D5EE
:101D5000686810F00C0F07D06868C0F38100022893
:101D600009D16868C00306D42868800714D52069A3
:101D7000012808D110E02069B0B1C6F80090FFF743
:101D800067FB074605E00AE1FFF762FBC01B02287C
:101D9000C4D828688007F7D52868616920F0F80062
:101DA00040EAC10028600DE0C6F80080FFF750FB54
:101DB000074604E0FFF74CFBC01B022823D8286825
:101DC0008007F7D4207800072CD57948A169D9B1CC
:101DD000C0F80090FFF73CFB074604E0FFF738FB34
:101DE000C01B02280FD8686A8007F7D571484FF4E6
:101DF000FA510068B0FBF1F0009000BF0098411E5E
:101E00000091FAD20EE080E0C0F80080FFF720FBDE
:101E1000074604E0FFF71CFBC01B022875D8686A60
:101E20008007F7D42078400760D5E8690027C00014
:101E300008D4E86940F08050E861E869012700F0C3
:101E4000805000905C480168C90513D4016883463E
:101E500041F480710160FFF7FBFA824606E000BFA3
:101E6000FFF7F6FAA0EB0A0064284ED8DBF8000072
:101E7000C005F5D5E06801280AD008B1052813D0BF
:101E8000286A20F001002862286A20F0040002E09D
:101E9000286A40F001002862E06841F2883B98B16E
:101EA000FFF7D6FA82460BE0286A40F00400286269
:101EB000EEE700BFFFF7CCFAA0EB0A0159455AD86C
:101EC000286A8007F6D50CE0FFF7C2FA824605E0E3
:101ED000FFF7BEFAA0EB0A0159454CD8286A8007E3
:101EE000F6D41FB1E86920F08050E861E06988B35A
:101EF0006968C1F38101022944D00228C6F86080D4
:101F000004D0FFF7A5FA044638E034E0FFF7A0FA62
:101F1000074604E0FFF79CFAC01B02282BD828686C
:101F20008001F7D4206AB0F5803F05D16868A168C8
:101F300020F4003008436860D4E908010843696868
:101F400021F4741108436860C6F86090FFF780FAC6
:101F5000044606E025E000BFFFF77AFA001B0228DE
:101F600009D828688001F7D51BE000BFFFF770FA99
:101F7000001B022802D90320BDE8F88F28688001E1
:101F8000F4D40EE00128F7D06868226A00F48031AA
:101F9000914204D1616A00F47010884201D001209E
:101FA000EAE70020E8E7000000100240000042429B
:101FB000800442420C0000200070004070B5040014
:101FC00009D0606A002540B125616561A56294F879
:101FD000510040B10CE0012070BD6068B0F5827F17
:101FE000F4D0E561F2E784F85050204600F040F864
:101FF000022084F851002068016821F0400101604E
:10200000A088218900F4827001F404410843A18969
:1020100001F400610843217C01F002010843217DA5
:1020200001F001010843218B01F400710843217F75
:1020300001F03801084394F8201001F080010843B2
:10204000218D01F40051084321680860A069042132
:1020500001EA1040216848602068C16921F40061EC
:10206000C1616565012084F85100002070BD000049
:1020700030B585B000240094019402940394006864
:102080001449884223D11448816941F48051816107
:10209000816901F480510491816941F004018161F9
:1020A00080690E4D00F004000490A02000900220F2
:1020B00001900320039069462846FFF7C7F84020A7
:1020C000CDE90004694628460294FFF7BFF805B041
:1020D00030BD000000300140001002400008014007
:1020E0002DE9F84F044690F851001D4616460F465C
:1020F000012838D160684FF00408B0F5827F01D123
:10210000A06830B3FFF7A4F98246002F75D0002EE7
:1021100073D094F85000012825D04FF0010984F8BD
:10212000509084F851804FF00008C4F85480A763A1
:10213000A687E687C4F83080A4F83480A4F83680F7
:10214000C4F84080C4F84480A068B0F5004F0CD0BB
:1021500015E084F85180009313460A46204600F0AB
:102160001CF9BDE8F88F0220FBE72068016821F028
:10217000400101602068016821F48041016020680D
:102180000168490603D4016841F040010160E0683C
:10219000C0B134E020688168C90709D0007BA16B19
:1021A0000870A06B401CA063E08F401EE08709E030
:1021B000FFF74EF9A0EB0A00A84202D3681C01D039
:1021C00032E085B3E08F0028E4D11BE0206881680D
:1021D000C90709D0C068A16B0880A06B801CA063F0
:1021E000E08F401EE0870AE0FFF732F9A0EB0A001B
:1021F000A84203D3681C02D016E012E09DB1E08F24
:102200000028E3D152462946204600F074FD08B16B
:102210002020606584F8519084F85080606D00281B
:102220009FD001209DE7FFE784F8519084F850800B
:10223000032096E72DE9F84F984616468A4604464D
:10224000FFF706F9814694F8510001281ED1BAF132
:10225000000F73D0002E71D094F85000012815D0D3
:10226000012784F85070032084F85100002565652B
:10227000C4F830A0A686E686A563A587E5876564D1
:102280002564A068B0F5004F03D00CE00220BDE843
:10229000F88F2068016821F0400101602068016822
:1022A00041F48041016020680168490603D4016857
:1022B00041F040010160E068B0F5006F606803D054
:1022C00048B3012E27D047E008B1012E1FD1206B63
:1022D00021680088C86006E020688168890709D500
:1022E000216B0988C160206B801C2063E08E401E3A
:1022F000E0860CE0FFF7ACF8A0EB0901414503D301
:10230000B8F1FF3F03D035E0B8F1000F32D0E08ED6
:102310000028E1D123E0206B21680078087306E0F3
:102320002068816889070AD5216B09780173206BC1
:10233000401C2063E08E401EE0860DE02BE0FFF79E
:1023400087F8A0EB0901414503D3B8F1FF3F03D063
:1023500010E0B8F1000F0DD0E08E0028E0D14A4621
:102360004146204600F0F5FC08B120206065A068D9
:1023700030B109E084F8517084F85050032086E7AA
:102380002068C1688068009084F8517004F8505F3C
:1023900060680028F3D0012079E72DE9FF4F81B074
:1023A0001D46934604464FF001090E9EFFF750F874
:1023B000074694F851006168012806D0B1F5827F84
:1023C0003CD1A168C9BB042838D10298002871D03B
:1023D000BBF1000FFBD0002DF9D094F8500001287C
:1023E0002CD04FF0010A84F850A094F85100042832
:1023F00002D0052084F851004FF00008C4F8548042
:10240000C4F838B0E587A58702992163E586A586DB
:10241000C4F84080C4F8448020680168490603D4A9
:10242000016841F040010160E068B0F5006F60684C
:1024300008D0F0B3012D49D081E0FFE7022005B0BC
:10244000BDE8F08F08B1012D39D1206B21680088DB
:10245000C860206B801C2063E08E401EE0862EE06A
:102460002068816889070FD5E18E69B1B9F1010F44
:102470000AD1216B0988C160206B801C2063E08E2B
:10248000401EE0864FF0000920688168C9070CD023
:10249000E18F51B1C068A16B0880A06B801CA06364
:1024A000E08F401EE0874FF00109FEF7D1FFC01B0F
:1024B00001E00BE067E0B04201D3701C50D1E08E28
:1024C0000028CDD1E08F0028CAD13EE0206B2168E2
:1024D00000780873206B401C2063E08E401EE0866D
:1024E0002DE02068816889070FD5E18E69B1B9F1C7
:1024F000010F0AD1216B09780173206B401C206306
:10250000E08E401EE0864FF0000920688168C90710
:102510000CD0E18F51B1C068A16B0870A06B401C5A
:10252000A063E08F401EE0874FF00109FEF790FFA7
:10253000C01BB04202D3701C01D011E086B1E08E06
:102540000028CED1E08F0028CBD13A463146204634
:1025500000F0FFFB50B12020606584F8508012E04D
:1025600084F851A084F85080032068E7A06818B967
:102570002068C1688068009084F851A084F8508079
:10258000606D0028F1D0012059E710B5401EB0F170
:10259000807F01D3012010BD4FF0E02460610F2146
:1025A000601700F04DFD0020A06107202061002091
:1025B00010BD70B5040004D094F84100002510B19E
:1025C00006E0012070BD84F84050204600F024F859
:1025D000242084F841002068C16821F40051C160C2
:1025E000204600F087FC2068016921F490410161D8
:1025F0002068416921F02A0141612068C16841F4E5
:102600000051C1606564202084F8410084F84200D4
:102610006563002070BD000030B585B000240094D3
:1026200001940294039400681449884224D1144808
:10263000816941F480418161816901F480410491A3
:10264000816941F00401816180690E4D00F0040050
:1026500004904FF40070009002200190032003903A
:1026600069462846FEF7F2FD2815CDE900046946C3
:1026700028460294FEF7EAFD05B030BD003801405F
:1026800000100240000801402DE9F843044690F88C
:102690004100984616460D46202802D00220BDE88B
:1026A000F88385B17EB100206064212084F8410068
:1026B000FEF7CEFEA6848146E684A0682027B0F50A
:1026C000805F02D003E00120E9E7206910B12E46C7
:1026D00000250EE000260CE08021204600F066FC7C
:1026E000A8B9C6B116F8010B21684860E08C401EFD
:1026F000E084E08C4B464FF00002CDF800800028CB
:10270000EAD14FF04001204600F050FC40B184F87F
:1027100041700320C3E735F8020BC0F30800E3E77C
:1027200084F841700020BAE7FEE701684A69D243A5
:1027300052050FD46FF480624A61002140F8301FC7
:10274000202242738173026942F004020261017324
:1027500001207047002070472DE9F84F04460068BB
:1027600089460B9D01689846174641F480610160D7
:102770002068016841F48071016000954FF0011BF1
:102780000022594620460A9B00F0E4F84FF4007AF4
:1027900040B120680068C00501D5C4F840A00320FE
:1027A000BDE8F88F216809F0FE0008612B46284932
:1027B00020460A9A00F016F9F0BB2068416980694A
:1027C00000902A4620460A9900F0A2F940B1206CF8
:1027D00004283AD12068016841F40071016034E0B6
:1027E000FEB2B8F1010F09D02168380A08612A4603
:1027F00020460A9900F08CF90028E8D1206806618B
:102800002A4620460A9900F083F90028DFD1206883
:10281000016841F48071016000950022594620460C
:102820000A9B00F097F80028B3D1216809F0FF0057
:1028300040F00100086100E007E02B460449204613
:102840000A9A00F0CFF80028AAD00120A8E70000DB
:10285000020001002DE9F843044600680D46DDE959
:10286000089701689846164641F4807101604B460E
:1028700000224FF001112046009700F06BF848B19C
:1028800020680068C00502D54FF400702064032062
:10289000BDE8F883216805F0FE0008613B464A4622
:1028A0001549204600F09EF888B920684169806982
:1028B00000903A464946204600F02AF948B1206C7B
:1028C000042804D12068016841F4007101600120EE
:1028D000DEE7F5B2B8F1010F09D02168300A0861CE
:1028E0003A464946204600F013F90028E7D120680F
:1028F00005610020CCE700000200010070B516461B
:102900000D4604461EE02046FFF70FFF08B10120E8
:1029100070BD681C16D0FEF79BFD801BA84200D836
:1029200085B920684069C04340070BD5002044F8B2
:10293000300F20216173A073216941F020012161D2
:102940002073E4E720684069C0434007DBD40020DF
:1029500070BD00002DE9F047984617460D46044625
:10296000C1F30746DDF820902AE000BFB8F1FF3F31
:1029700026D0FEF76DFDA0EB0901414502D8B8F164
:10298000000F1DD12068012E16D0806925EA0000B5
:102990000004000C12D00020B84211D1002044F8ED
:1029A000300F20216173A073216941F02001216162
:1029B00020730120BDE8F0874069E7E70120EBE7DD
:1029C0002068012E0AD0806925EA00000004000C6E
:1029D00006D00020B842C9D00020EBE74069F3E7F9
:1029E0000120F7E72DE9F047984616460D460446C4
:1029F0004FF000094FF0200AC1F3074723E0206899
:102A00004069C043400515D42068016841F4007155
:102A1000016021686FF480604861C4F8309084F8E8
:102A20003DA084F83E90216C41F00401216484F8BB
:102A30003C9021E0701C06D0FEF70AFDA0EB0800D8
:102A4000B04203D816B1012F1FD021E02068012F1A
:102A500015D0806925EA00000004000C18D000BFE2
:102A600044F8309F84F80DA084F80E90216941F05D
:102A70002001216184F80C900120BDE8F0874069B5
:102A800025EA00000004000CEAD12068406901E05A
:102A90002068806925EA00000004000CAFD1ECE753
:102AA0002DE9F041002590460E460446202728E0F7
:102AB0004069C043C0060CD454F8301B6FF01000BE
:102AC000486144F810596777A577206A2062257716
:102AD00014E0FEF7BDFCA0EB0800B04200D886B9B8
:102AE00020684069C04340060BD544F8305F6773E7
:102AF000A573206940F02000206125730120BDE806
:102B0000F08120684169C9434906D1D40020F6E725
:102B100070B516460D4604461EE02046FFF705FE3A
:102B200008B1012070BD681C16D0FEF791FC801B17
:102B3000A84200D885B920684069C04300060BD57B
:102B4000002044F8300F20216173A073216941F007
:102B5000200121612073E4E720684069C04300063A
:102B6000DBD4002070BD00003EB564248DE81C005D
:102B70000A46014601230248FEF762FE3EBD000000
:102B80001C0000203EB564248DE81C000A46014666
:102B900001230248FEF726FD3EBD00001C00002078
:102BA0000A46014664230148FFF79ABA70000020E4
:102BB0000A46014664230148FFF73CBB7000002031
:102BC00070B586B0002418480094019402940394D0
:102BD000816941F010018161816901F01001049166
:102BE000816941F004018161816901F0040104916E
:102BF000816941F0080181618069012200F00800CB
:102C00000A4E5503049029463046FEF71BFC01206E
:102C10000095CDE901040320039069463046FEF794
:102C200015FB06B070BD000000100240001001400E
:102C30000D4810B50B4901600C49416000214FF46B
:102C400080428160C0E9031241618161C16101621A
:102C5000FEF704FC002803D0BDE81040FEF7A6B93B
:102C600010BD0000005800401C000020801A060023
:102C7000104810B50E4901604FF482714160002187
:102C80008160C1604FF400720161C0E90512102239
:102C9000C0E90721416281620A21C162FFF78EF912
:102CA000002803D0BDE81040FEF780B910BD000039
:102CB00000300140700000200C4810B50A49016046
:102CC0004FF416514160002181600C22C160C0E9BF
:102CD00004128161C161FFF76CFC002803D0BDE8DC
:102CE0001040FEF763B910BD00380140C800002055
:102CF000FEE7FEE77047F8B5044640684FF482737C
:102D0000984217D1A0684FF48065B0F5004F01D00C
:102D1000A8420FD12068066826F040060660606869
:102D2000984207D1A068A84204D100920B46002225
:102D3000012103E000920B4600228021204600F092
:102D400023F8002804D0606D40F020006065032067
:102D5000F8BDF8B515460E460B4600920446012212
:102D6000022100F011F840B93346002280212046AC
:102D7000009500F009F8002804D0606D40F02000B4
:102D800060650320F8BD00002DE9F8431E4691461A
:102D900088460446089DFEF75BFB401B351AFEF78C
:102DA00057FB074625480068C0F3CB30684338E03E
:102DB000701C37D0FEF74CFBC01BA84203D215B1E4
:102DC000009860B32CE02068416821F0E001416088
:102DD0006068B0F5827F0BD1A068B0F5004F02D0DB
:102DE000B0F5806F04D12068016821F040010160D6
:102DF000A06AB0F5005F09D12068016821F4005194
:102E000001602068016841F400510160012084F8EC
:102E10005100002084F850000320BDE8F88300250D
:102E2000401E00902068816838EA010004D000212B
:102E30004945BDD10020F0E70121F9E70C00002051
:102E40007047FEF7C5BD30B58FB028216846FDF745
:102E5000A4F914210AA8FDF7A0F901210804CDE97D
:102E600000100024029402250491CDE907504FF48C
:102E7000E01009906846FEF711FF08B172B6FEE750
:102E80000F20CDE90A054FF48060CDE90C40022106
:102E90000AA80E94FEF726FE002801D072B6FEE7BF
:102EA0000FB030BD704701680C3151E8002F22F49B
:102EB000907241E80023002BF5D10168143151E8EC
:102EC000002F22F0010241E80023002BF5D1016B15
:102ED000012909D101680C3151E8002F22F01002BC
:102EE00041E80023002BF5D1202180F84210002179
:102EF0000163704770B5044600680169E26821F417
:102F00004051114301612169A06808436169084388
:102F10002168CA6841F20C639A430243CA60206880
:102F20004169A26921F44071114341611E49206841
:102F3000884202D1FEF77CFE01E0FEF769FE00EB5D
:102F4000C00101EB0012606864218000B2FBF0F365
:102F5000B3FBF1F36FF018067343B2FBF0F5B2FB6D
:102F6000F0F605EB8305322303EB0515B5FBF1F510
:102F7000B6FBF1F605F0F00505EB0615B2FBF0F631
:102F8000B2FBF0F0B0FBF1F06FF01802504306EB2B
:102F9000800003EB0010B0FBF1F0216800F00F009F
:102FA0002844886070BD0000003801402DE9F843D6
:102FB000984617460D460446089E24E0701C22D011
:102FC000FEF746FAA0EB0800B0421AD8CEB120684E
:102FD000C168490717D5802D15D0402D13D0016841
:102FE000C94309070FD401680025406800902046B6
:102FF000FFF759FF0820606484F840500120BDE8C5
:10300000F8830320FBE72068006835EA000004D05D
:103010000020B842D2D00020F1E70120F9E7FEE716
:103020000FB4054B10B503A9044A029800F028F824
:1030300010BC5DF814FB0000D93400081800002013
:103040000907090E002804DB00F1E02080F80014D5
:10305000704700F00F0000F1E02080F8141D704769
:1030600002E008C8121F08C1002AFAD17047704751
:10307000002001E001C1121F002AFBD170470000AF
:103080002DE9FF4F8DB00F460546002606E02528A6
:103090000BD0DDE90F1290476D1C761C28780028B4
:1030A000F5D111B03046BDE8F08F0024A246A1460C
:1030B0000122E94900E0044315F8013F203B02FAF0
:1030C00003F00842F7D128782A2810D06FF02F0299
:1030D0002878A0F13001092914D80AEB8A0102EB03
:1030E000410144F0020400EB010A6D1CF0E701CF3E
:1030F0005FEA000A03D544F40054CAF1000A44F020
:1031000002046D1C28782E2817D115F8010F44F001
:1031100004042A280ED06FF02F022878A0F1300185
:1031200009290AD809EB890102EB410100EB0109E9
:103130006D1CF2E757F8049B6D1C28786C280FD0A3
:1031400006DC4C2817D068280DD06A2814D104E07A
:10315000742810D07A280FD10DE044F400140AE04E
:1031600044F4801401E044F440146978814202D1AF
:1031700004F580146D1C6D1C28786E281ED00CDCA4
:10318000632830D004DC00288BD0582811D19FE070
:10319000642867D069280CD164E073282DD004DC42
:1031A0006F2872D0702804D194E075286ED07828EA
:1031B0006DD0DDE90F129047761C4BE1C4F302504D
:1031C000022806D0032809D0042801CF09D00660C0
:1031D00040E101CFF117C0E900613BE101CF06807A
:1031E00038E1067036E117F8040B8DF80000002076
:1031F0008DF80100EB46012003E057F804BB4FF0C7
:10320000FF3061074FF0000102D40DE008F1010129
:10321000884649450FDA8045F8DB1BF8081000297D
:10322000F4D108E008F1010188468142FADB1BF87D
:1032300008100029F6D1DDE90F23AAEB080081462A
:10324000214600F031F9304400EB080604E0DDE9E6
:103250000F121BF8010B9047B8F10108F7D2214675
:103260004846F2E00A21C4F302524FF0000B0891E5
:10327000022A04D001CFC117032A09D00AE0FF1D9A
:1032800027F00707F7E8020108E02CE01EE01FE046
:1032900000B2C117042A01D140B2C117021E71F158
:1032A000000206DA0023D0EB030063EB01012D22BC
:1032B00002E0220504D52B228DF82420012203E010
:1032C000E20701D02022F7E7904653E00A210BE005
:1032D000102109E010214FF0000B44F004044FF0DE
:1032E0000809089103E008214FF0000B0891C4F38E
:1032F0000252022A04D001CF0021032A06D006E0A0
:10330000FF1D27F00707F7E8020103E080B2042A57
:1033100000D1C0B24FF0000822072BD52A78702ABE
:1033200007D0DDF820C08CF0100C5CEA0B0C05D047
:103330000EE040228DF82420012208E050EA01032B
:1033400006D030238DF824308DF8252002229046B7
:10335000089B83F0080353EA0B030BD150EA0102E8
:1033600001D1620706D530228DF824204FF00108E4
:10337000A9F101092A78582A04D038A20B9208AA88
:103380000A920BE03AA2F9E75B46089AFCF710FFB5
:103390000B9B9B5C0A9A521E0A92137050EA010220
:1033A000F2D10A98ADEB000000F1200B600702D5C6
:1033B00024F4803401E04FF00109D94502DDA9EB86
:1033C0000B0000E0002000EB0B0141440890AAEB49
:1033D000010AE00306D4DDE90F232146504600F040
:1033E00063F806444FF0000908E009A911F8090044
:1033F000DDE90F12904709F10109761CC145F4DBA4
:10340000E0030CD5DDE90F232146504600F04CF8CF
:10341000064404E0DDE90F1230209047761C08993D
:10342000481E08900029F5DC08E00A980A990078FF
:10343000491C0A91DDE90F129047761CBBF100018F
:10344000ABF1010BF1DC21465046DDE90F2300F022
:1034500019F806446D1C21E6092801003031323389
:1034600034353637383961626364656600000000C0
:1034700030313233343536373839414243444546AA
:10348000000000002DE9F041044600251E461746C5
:10349000880404D405E039462020B0476D1C641E22
:1034A000F9D52846BDE8F0812DE9F0410446002514
:1034B0001E469046C80301D5302700E02027880427
:1034C00004D505E041463846B0476D1C641EF9D569
:1034D0002846BDE8F081000013B54FF6FF730122C6
:1034E00069460248FFF7D0F800981CBDC8000020CC
:1034F000FEF776FAFFF7A7FCFFF762FBFFF7DCFBAE
:10350000FFF796FBFFF7B4FB67220DA111A0FFF7B1
:1035100087FD0024FCF736FF78B16420FDF7D2FD6B
:10352000641CE4B20A2CF5D313A000BFFFF778FDAA
:10353000FCF792FEFDF768FBFEE714A0F6E700003B
:103540002E2E2F436F72652F5372632F6D61696E3C
:103550002E6300005B25733A25645D2074686973EF
:1035600020697320626F6F746C6F61646572206490
:10357000656D6F0D0A000000454550524F4D2049C2
:103580006E6974206661696C0D0A000045455052F1
:103590004F4D20496E697420737563636573730DB5
:1035A0000A000000010202030405060708090A0BCD
:1035B0000C0D0E0F101000000000000000000102B2
:1035C00003040607080900000000010203040000CC
:1035D00000000000010000000000000001000000E9
:1035E00000360008000000201C00000060300008C9
:1035F0001C3600081C000020140500007030000874
:1036000001000000100000000000000000127A001D
:0C361000000000000000000000000000AE
:0400000508000131BD
:00000001FF
